:020000040800F2
:1000000000000120310F0008810F0008810F000857
:10001000810F0008810F0008810F00080000000018
:10002000000000000000000000000000810F000838
:10003000810F000800000000810F0008810F0008F8
:100040000000000029070008810F0008D107000800
:10005000810F0008810F000871030008A903000840
:10006000E10300081904000851040008810F00088A
:10007000810F0008810F0008810F0008810F000820
:10008000810F0008810F0008810F000800000000A8
:1000900000000000000000000000000089040008CB
:1000A000810F0008810F0008810F0008810F0008F0
:1000B000810F0008810F0008810F0008810F0008E0
:1000C000810F0008810F0008810F0008810F0008D0
:1000D000810F0008A10C0008D10B000800000000EF
:1000E000BD0500086107000899070008000000002E
:1000F000000000000000000000000000810F000868
:1001000000000000810F0008810F0008810F000827
:1001100000000000000000000000000000000000DF
:10012000810F0008810F0008810F0008810F00086F
:10013000810F000800000000000000000000000027
:10014000000000000000000000000000810F000817
:10015000810F0008810F0008810F0008710D000851
:10016000810F0008810F000800000000000000005F
:10017000000000000000000000000000000000007F
:10018000000000000000000000000000000000006F
:04019000810F0008D3
:1001940010B5054C237833B9044B13B10448AFF3BD
:1001A40000800123237010BD3000002000000000F7
:1001B400CC0F000808B5034B1BB103490348AFF348
:1001C400008008BD0000000034000020CC0F0008AF
:1001D40080B485B000AF78600023FB737B680E4A5F
:1001E40093420BD07B680D4A934207D07B680C4A3C
:1001F400934203D07B680B4A934204D10A4A7B683A
:10020400C2F8043D01E00123FB73FB7B184614375D
:10021400BD4680BC704700BF0004FA050005FA051E
:100224000006FA050007FA0508E000E080B483B090
:1002340000AF6FF07F433B600023FB713B68B3F179
:10024400807F02D90123FB7111E00C4B1B680B4A20
:1002540023F001031360094A3B685360074B0022F3
:100264009A60064B1B68054A43F004031360FB794C
:1002740018460C37BD4680BC704700BF10E000E054
:1002840080B485B000AF78600023FB737B68B3F162
:10029400807F02D90123FB7312E00C4A7B68536010
:1002A4000A4B1B68094A43F00103136000BF074B64
:1002B4001B6803F48033002BF9D0044B00229A60AE
:1002C400FB7B18461437BD4680BC704710E000E045
:1002D40080B584B000AF78607B68002B0CD07B685D
:1002E400FB6006E044F28910FFF7CAFFFB68013B9C
:1002F400FB60FB68002BF5D100BF1037BD4680BD05
:1003040080B483B000AF0346FB71084B5B69FA7994
:10031400012101FA02F21146044A0B4353610023FE
:1003240018460C37BD4680BC704700BF003C0140F6
:1003340080B483B000AF03463960FB710A4B5B693C
:10034400FA79012101FA02F21340002B14BF0123B0
:100354000023DBB21A463B681A70002318460C3798
:10036400BD4680BC704700BF003C014080B500AF73
:100374000A4B1B781846FFF7C3FF084B1B781A4635
:10038400074B53F82230002B06D0044B1B781A4637
:10039400034B53F82230984700BF80BDA8000020CB
:1003A4004C00002080B500AF0A4B1B781846FFF7BD
:1003B400A7FF084B1B781A46074B53F82230002B33
:1003C40006D0044B1B781A46034B53F82230984747
:1003D40000BF80BDA80000204C00002080B500AF05
:1003E4000A4B1B781846FFF78BFF084B1B781A46FD
:1003F400074B53F82230002B06D0044B1B781A46C7
:10040400034B53F82230984700BF80BDA80000205A
:100414004C00002080B500AF0A4B1B781846FFF74C
:100424006FFF084B1B781A46074B53F82230002BFA
:1004340006D0044B1B781A46034B53F822309847D6
:1004440000BF80BDA80000204C00002080B500AF94
:100454000A4B1B781846FFF753FF084B1B781A46C4
:10046400074B53F82230002B06D0044B1B781A4656
:10047400034B53F82230984700BF80BDA8000020EA
:100484004C00002080B582B000AF0023FB71FB1D3F
:1004940019460520FFF74CFFFB79012B13D10520EA
:1004A400FFF72EFF424B1B781A46424B53F822307B
:1004B400002B06D03E4B1B781A463E4B53F8223095
:1004C40098470023FB71FB1D19460620FFF730FFF8
:1004D400FB79012B13D10620FFF712FF344B1B7855
:1004E4001A46344B53F82230002B06D0304B1B787D
:1004F4001A46304B53F8223098470023FB71FB1DFA
:1005040019460720FFF714FFFB79012B13D10720AD
:10051400FFF7F6FE264B1B781A46264B53F822307B
:10052400002B06D0224B1B781A46224B53F822305C
:1005340098470023FB71FB1D19460820FFF7F8FEBE
:10054400FB79012B13D10820FFF7DAFE184B1B7837
:100554001A46184B53F82230002B06D0144B1B7844
:100564001A46144B53F8223098470023FB71FB1DA5
:1005740019460920FFF7DCFEFB79012B13D1092072
:10058400FFF7BEFE0A4B1B781A460A4B53F822307B
:10059400002B06D0064B1B781A46064B53F8223024
:1005A40098470023FB7100BF0837BD4680BD00BFDC
:1005B400A80000204C00002080B582B000AF0023CA
:1005C400FB71FB1D19460A20FFF7B2FEFB79012BD4
:1005D40013D10A20FFF794FE504B1B781A46504B58
:1005E40053F82230002B06D04C4B1B781A464C4B48
:1005F40053F8223098470023FB71FB1D19460B204A
:10060400FFF796FEFB79012B13D10B20FFF778FE41
:10061400424B1B781A46424B53F82230002B06D02B
:100624003E4B1B781A463E4B53F822309847002322
:10063400FB71FB1D19460C20FFF77AFEFB79012B99
:1006440013D10C20FFF75CFE344B1B781A46344B55
:1006540053F82230002B06D0304B1B781A46304B0F
:1006640053F8223098470023FB71FB1D19460D20D7
:10067400FFF75EFEFB79012B13D10D20FFF740FE3F
:10068400264B1B781A46264B53F82230002B06D0F3
:10069400224B1B781A46224B53F8223098470023EA
:1006A400FB71FB1D19460E20FFF742FEFB79012B5F
:1006B40013D10E20FFF724FE184B1B781A46184B53
:1006C40053F82230002B06D0144B1B781A46144BD7
:1006D40053F8223098470023FB71FB1D19460F2065
:1006E400FFF726FEFB79012B13D10F20FFF708FE3D
:1006F4000A4B1B781A460A4B53F82230002B06D0BB
:10070400064B1B781A46064B53F8223098470023B1
:10071400FB7100BF0837BD4680BD00BFA8000020A4
:100724004C00002080B500AF0A4B1B781846FFF739
:10073400E7FD084B1B781A46074B53F82230002B71
:1007440006D0044B1B781A46034B53F822309847C3
:1007540000BF80BDA80000204C00002080B500AF81
:100764000A4B1B781846FFF7CBFD084B1B781A463B
:10077400074B53F82230002B06D0044B1B781A4643
:10078400034B53F82230984700BF80BDA8000020D7
:100794004C00002080B500AF0A4B1B781846FFF7C9
:1007A400AFFD084B1B781A46074B53F82230002B39
:1007B40006D0044B1B781A46034B53F82230984753
:1007C40000BF80BDA80000204C00002080B500AF11
:1007D4000A4B1B781846FFF793FD084B1B781A4603
:1007E400074B53F82230002B06D0044B1B781A46D3
:1007F400034B53F82230984700BF80BDA800002067
:100804004C00002080B485B000AF78600023FB73F7
:100814007B68002B02D10123FB7308E17B681B7802
:100824001A46864B53F822301A687B685B785B0063
:10083400032101FA03F3DB4319467B681B7818464E
:100844007E4B53F820300A401A607B681B781A46A6
:100854007A4B53F822301A687B689B7819467B6878
:100864005B785B0001FA03F319467B681B78184632
:10087400724B53F820300A431A607B681B781A467F
:100884006E4B53F82230DA687B685B785B00032197
:1008940001FA03F3DB4319467B681B781846674B60
:1008A40053F820300A40DA607B681B781A46634BA1
:1008B40053F82230DA687B685B7919467B685B7889
:1008C4005B0001FA03F319467B681B7818465B4BFF
:1008D40053F820300A43DA607B689B78012B04D0FC
:1008E4007B689B78022B40F0A2807B681B781A46B9
:1008F400524B53F822305A687B685B7819460123BF
:100904008B40DB4319467B681B7818464B4B53F8E6
:1009140020300A405A607B681B781A46474B53F8CC
:1009240022305A687B681B7919467B685B7801FA28
:1009340003F319467B681B781846404B53F8203064
:100944000A435A607B681B781A463C4B53F82230A2
:100954009A687B685B785B00032101FA03F3DB434D
:1009640019467B681B781846344B53F820300A40EC
:100974009A607B681B781A46304B53F822309A6889
:100984007B68DB7819467B685B785B0001FA03F3CC
:1009940019467B681B781846284B53F820300A43C5
:1009A4009A607B689B78022B41D17B685B78DB087B
:1009B400BB737B685B7803F007037B737B681B78EE
:1009C4001A461E4B53F82230BA7B083253F82210D1
:1009D4007B7B9B000F2202FA03F3DB4318467B6800
:1009E4001B781A46154B53F82230BA7B0140083263
:1009F40043F822107B681B781A46104B53F82230B8
:100A0400BA7B083253F822107B689B791A467B7BA9
:100A14009B0002FA03F318467B681B781A46074BBF
:100A240053F82230BA7B0143083243F82210FB7B8F
:100A340018461437BD4680BC704700BF0000002034
:100A440080B485B000AF03460A46FB711346BB7100
:100A54000023FB73FB79052B8CBF01230023DAB23F
:100A6400BB790F2B8CBF01230023DBB21343DBB212
:100A7400002B02D00123FB730FE0FB790A4A52F8E2
:100A840023305A69BB79012101FA03F31846FB7933
:100A9400054951F8233042405A61FB7B184614370C
:100AA400BD4680BC704700BF0000002080B485B004
:100AB40000AF78600023FB737B68002B02D1012315
:100AC400FB734AE07B681B68012B1DD17B685B6864
:100AD400012B12D1244B9B68234A43F001039360FA
:100AE400214B9B68204A23F0020393601E4B1B6832
:100AF4001D4A43F4803313602FE01B4B1B681A4AD2
:100B040023F48033136028E07B681B68022B1DD11B
:100B14007B689B68012B12D1134B9B68124A23F00C
:100B240001039360104B9B680F4A23F00203936008
:100B34000D4B1B680C4A43F0010313600DE00A4B94
:100B44001B68094A23F00103136006E07B681B68F5
:100B5400042B02D07B681B68082BFB7B18461437D8
:100B6400BD4680BC704700BF0038024080B485B0E9
:100B740000AF78600023FB737B68002B02D1012354
:100B8400FB731AE0104B9B6823F004027B681B681C
:100B94000D4913438B600C4B9B6823F00A027B685E
:100BA4005B68094913438B60074B9B6823F00D0274
:100BB4007B689B68044913438B60FB7B184614379E
:100BC400BD4680BC704700BF0038024080B400AF0F
:100BD4002C4B1B781A462C4B53F822301B6803F01D
:100BE4002003002B1CD0274B1B781A46264B53F8A6
:100BF40022301A68234B1B781946234B53F82130B3
:100C040022F020021A601F4B1B781A461E4B53F821
:100C140022305B68DAB21D4B1A701D4B01221A7028
:100C2400184B1B781A46184B53F822301B6803F0F4
:100C34008003002B21D0134B1B781A46124B53F818
:100C440022301A680F4B1B7819460F4B53F821308A
:100C540022F080021A600F4B1B78DBB2002B0CD100
:100C64000D4B1B78DAB2074B1B781946064B53F829
:100C740021305A60074B01221A7000BFBD4680BC68
:100C8400704700BFA900002018000020AB0000201E
:100C9400AC00002024000020AA00002080B400AF93
:100CA4002C4B1B781A462C4B53F822301B6803F04C
:100CB4002003002B1CD0274B1B781A46264B53F8D5
:100CC40022301A68234B1B781946234B53F82130E2
:100CD40022F020021A601F4B1B781A461E4B53F851
:100CE40022305B68DAB21D4B1A701D4B01221A7058
:100CF400184B1B781A46184B53F822301B6803F024
:100D04008003002B21D0134B1B781A46124B53F847
:100D140022301A680F4B1B7819460F4B53F82130B9
:100D240022F080021A600F4B1B78DBB2002B0CD12F
:100D34000D4B1B78DAB2074B1B781946064B53F858
:100D440021305A60074B01221A7000BFBD4680BC97
:100D5400704700BFA900002018000020AB0000204D
:100D6400AC00002024000020AA00002080B400AFC2
:100D74002C4B1B781A462C4B53F822301B6803F07B
:100D84002003002B1CD0274B1B781A46264B53F804
:100D940022301A68234B1B781946234B53F8213011
:100DA40022F020021A601F4B1B781A461E4B53F880
:100DB40022305B68DAB21D4B1A701D4B01221A7087
:100DC400184B1B781A46184B53F822301B6803F053
:100DD4008003002B21D0134B1B781A46124B53F877
:100DE40022301A680F4B1B7819460F4B53F82130E9
:100DF40022F080021A600F4B1B78DBB2002B0CD15F
:100E04000D4B1B78DAB2074B1B781946064B53F887
:100E140021305A60074B01221A7000BFBD4680BCC6
:100E2400704700BFA900002018000020AB0000207C
:100E3400AC00002024000020AA00002080B500AFF0
:100E440000F042F8FFF7F2F91C4B1B6B1B4A43F00E
:100E540001031363194B1B6B184A43F00403136318
:100E6400164B1B6B154A43F0020313631448FFF738
:100E7400AFF91448FFF7C6FC104B1B6C0F4A43F440
:100E8400003313640D4B1B6C0C4A43F400131364BE
:100E94000A4B1B6C094A43F480031364074B1B6C15
:100EA400064A43F4000313640D210220FFF7C8FD32
:100EB4004FF4FA70FFF70CFAF6E700BF003802406F
:100EC4000005FA052800002080B58AB000AF002391
:100ED40087F8273007F1100300221A605A609A60DD
:100EE400DA601A613B1D00221A605A609A6001237D
:100EF4003B6101237B6107F110031846FFF7D6FD20
:100F0400034687F8273000237B600023BB6000235F
:100F1400FB603B1D1846FFF729FE034687F8273080
:100F240097F8273018462837BD4680BD0D488546BA
:100F3400AFF300800C480D490D4A002302E0D45859
:100F4400C4500433C4188C42F9D30A4A0A4C00230F
:100F540001E013600432A242FBD300F011F8FFF762
:100F64006DFFFEE70000012000000020300000209B
:100F7400EC0F000830000020B0000020FEE7000065
:100F840070B50D4D0D4C641BA4100026A64209D16A
:100F94000B4D0C4C00F018F8641BA4100026A6425C
:100FA40005D170BD55F8043B98470136EEE755F876
:100FB400043B98470136F2E7E40F0008E40F000809
:100FC400E40F0008E80F0008F8B500BFF8BC08BC3F
:100FD4009E467047F8B500BFF8BC08BC9E467047F3
:040FE400B901000847
:040FE8009501000867
:100FEC00000002400004024000080240000C0240D5
:100FFC0000100240001C0240001001400044004060
:10100C000014014001000000020D0101000000006D
:0400000508000F31AF
:00000001FF
