:020000040800F2
:1000000000000120CD1400081D1500081D15000872
:100010001D1500081D1500081D1500080000000032
:100020000000000000000000000000001D15000896
:100030001D150008000000001D1500081D15000812
:10004000000000008D0700081D1500083508000895
:100050001D1500081D150008D50300080D04000833
:10006000450400087D040008B50400081D150008BB
:100070001D1500081D1500081D1500081D15000898
:100080001D1500081D1500081D15000800000000C2
:10009000000000000000000000000000ED04000867
:1000A0001D1500081D1500081D1500081D15000868
:1000B0001D1500081D1500081D1500081D15000858
:1000C0001D1500081D1500081D1500081D15000848
:1000D0001D15000805120008351100080000000079
:1000E00021060008C5070008FD0700080000000001
:1000F0000000000000000000000000001D150008C6
:10010000000000001D1500081D1500081D15000841
:1001100000000000000000000000000000000000DF
:100120001D1500081D1500081D1500081D150008E7
:100130001D15000800000000000000000000000085
:100140000000000000000000000000001D15000875
:100150001D1500081D1500081D150008D512000802
:100160001D1500081D15000800000000000000001B
:10017000000000000000000000000000000000007F
:10018000000000000000000000000000000000006F
:040190001D15000831
:1001940010B5054C237833B9044B13B10448AFF3BD
:1001A40000800123237010BD5000002000000000D7
:1001B4006815000808B5034B1BB103490348AFF3A6
:1001C400008008BD000000005400002068150008ED
:1001D40080B485B000AF0346FB710023FB7397F92D
:1001E4000730542B02DD0123FB731AE097F9073023
:1001F400002B00DA1F335B115BB2BB7397F9073036
:100204005A4203F01F0302F01F0258BF53425BB26D
:100214007B737B7B012202FA03F1054ABB7B42F824
:100224002310FB7B18461437BD4680BC704700BFC3
:1002340000E100E080B485B000AF78600023FB7378
:100244007B680E4A93420BD07B680D4A934207D0D9
:100254007B680C4A934203D07B680B4A934204D1D7
:100264000A4A7B68C2F8043D01E00123FB73FB7B6F
:1002740018461437BD4680BC704700BF0004FA0519
:100284000005FA050006FA050007FA0508E000E093
:1002940080B483B000AF6FF07F433B600023FB71F9
:1002A4003B68B3F1807F02D90123FB7111E00C4B51
:1002B4001B680B4A23F001031360094A3B6853602F
:1002C400074B00229A60064B1B68054A43F004035F
:1002D4001360FB7918460C37BD4680BC704700BFDD
:1002E40010E000E080B485B000AF78600023FB73B9
:1002F4007B68B3F1807F02D90123FB7312E00C4ABF
:100304007B6853600A4B1B68094A43F0010313607E
:1003140000BF074B1B6803F48033002BF9D0044B58
:1003240000229A60FB7B18461437BD4680BC704798
:1003340010E000E080B584B000AF78607B68002BEB
:100344000CD07B68FB6006E044F28910FFF7CAFF1B
:10035400FB68013BFB60FB68002BF5D100BF103745
:10036400BD4680BD80B483B000AF0346FB71084B2B
:100374005B69FA79012101FA02F21146044A0B433E
:100384005361002318460C37BD4680BC704700BF3C
:10039400003C014080B483B000AF03463960FB7178
:1003A4000A4B5B69FA79012101FA02F21340002B2E
:1003B40014BF01230023DBB21A463B681A700023E2
:1003C40018460C37BD4680BC704700BF003C014056
:1003D40080B500AF0A4B1B781846FFF7C3FF084BE4
:1003E4001B781A46074B53F82230002B06D0044BD7
:1003F4001B781A46034B53F82230984700BF80BD40
:10040400C80000206C00002080B500AF0A4B1B78A8
:100414001846FFF7A7FF084B1B781A46074B53F8FB
:100424002230002B06D0044B1B781A46034B53F89A
:100434002230984700BF80BDC80000206C00002017
:1004440080B500AF0A4B1B781846FFF78BFF084BAB
:100454001B781A46074B53F82230002B06D0044B66
:100464001B781A46034B53F82230984700BF80BDCF
:10047400C80000206C00002080B500AF0A4B1B7838
:100484001846FFF76FFF084B1B781A46074B53F8C3
:100494002230002B06D0044B1B781A46034B53F82A
:1004A4002230984700BF80BDC80000206C000020A7
:1004B40080B500AF0A4B1B781846FFF753FF084B73
:1004C4001B781A46074B53F82230002B06D0044BF6
:1004D4001B781A46034B53F82230984700BF80BD5F
:1004E400C80000206C00002080B582B000AF00235B
:1004F400FB71FB1D19460520FFF74CFFFB79012B0F
:1005040013D10520FFF72EFF424B1B781A46424BAE
:1005140053F82230002B06D03E4B1B781A463E4B34
:1005240053F8223098470023FB71FB1D194606201F
:10053400FFF730FFFB79012B13D10620FFF712FFE1
:10054400344B1B781A46344B53F82230002B06D018
:10055400304B1B781A46304B53F82230984700230F
:10056400FB71FB1D19460720FFF714FFFB79012BD4
:1005740013D10720FFF7F6FE264B1B781A46264BAD
:1005840053F82230002B06D0224B1B781A46224BFC
:1005940053F8223098470023FB71FB1D19460820AD
:1005A400FFF7F8FEFB79012B13D10820FFF7DAFEE1
:1005B400184B1B781A46184B53F82230002B06D0E0
:1005C400144B1B781A46144B53F8223098470023D7
:1005D400FB71FB1D19460920FFF7DCFEFB79012B9B
:1005E40013D10920FFF7BEFE0A4B1B781A460A4BAB
:1005F40053F82230002B06D0064B1B781A46064BC4
:1006040053F8223098470023FB7100BF0837BD46DA
:1006140080BD00BFC80000206C00002080B582B0FF
:1006240000AF0023FB71FB1D19460A20FFF7B2FE41
:10063400FB79012B13D10A20FFF794FE504B1B7852
:100644001A46504B53F82230002B06D04C4B1B78E3
:100654001A464C4B53F8223098470023FB71FB1D7C
:1006640019460B20FFF796FEFB79012B13D10B20C3
:10067400FFF778FE424B1B781A46424B53F8223060
:10068400002B06D03E4B1B781A463E4B53F82230C3
:1006940098470023FB71FB1D19460C20FFF77AFED7
:1006A400FB79012B13D10C20FFF75CFE344B1B7834
:1006B4001A46344B53F82230002B06D0304B1B78AB
:1006C4001A46304B53F8223098470023FB71FB1D28
:1006D40019460D20FFF75EFEFB79012B13D10D2087
:1006E400FFF740FE264B1B781A46264B53F8223060
:1006F400002B06D0224B1B781A46224B53F822308B
:1007040098470023FB71FB1D19460E20FFF742FE9C
:10071400FB79012B13D10E20FFF724FE184B1B7815
:100724001A46184B53F82230002B06D0144B1B7872
:100734001A46144B53F8223098470023FB71FB1DD3
:1007440019460F20FFF726FEFB79012B13D10F204A
:10075400FFF708FE0A4B1B781A460A4B53F822305F
:10076400002B06D0064B1B781A46064B53F8223052
:1007740098470023FB7100BF0837BD4680BD00BF0A
:10078400C80000206C00002080B500AF0A4B1B7825
:100794001846FFF7E7FD084B1B781A46074B53F83A
:1007A4002230002B06D0044B1B781A46034B53F817
:1007B4002230984700BF80BDC80000206C00002094
:1007C40080B500AF0A4B1B781846FFF7CBFD084BEA
:1007D4001B781A46074B53F82230002B06D0044BE3
:1007E4001B781A46034B53F82230984700BF80BD4C
:1007F400C80000206C00002080B500AF0A4B1B78B5
:100804001846FFF7AFFD084B1B781A46074B53F801
:100814002230002B06D0044B1B781A46034B53F8A6
:100824002230984700BF80BDC80000206C00002023
:1008340080B500AF0A4B1B781846FFF793FD084BB1
:100844001B781A46074B53F82230002B06D0044B72
:100854001B781A46034B53F82230984700BF80BDDB
:10086400C80000206C00002080B485B000AF786020
:100874000023FB737B68002B02D10123FB7308E187
:100884007B681B781A46864B53F822301A687B68BB
:100894005B785B00032101FA03F3DB4319467B68B1
:1008A4001B7818467E4B53F820300A401A607B6848
:1008B4001B781A467A4B53F822301A687B689B7867
:1008C40019467B685B785B0001FA03F319467B6881
:1008D4001B781846724B53F820300A431A607B6821
:1008E4001B781A466E4B53F82230DA687B685B78C3
:1008F4005B00032101FA03F3DB4319467B681B7891
:100904001846674B53F820300A40DA607B681B783E
:100914001A46634B53F82230DA687B685B791946D0
:100924007B685B785B0001FA03F319467B681B78EC
:1009340018465B4B53F820300A43DA607B689B7897
:10094400012B04D07B689B78022B40F0A2807B684B
:100954001B781A46524B53F822305A687B685B78EE
:10096400194601238B40DB4319467B681B781846E4
:100974004B4B53F820300A405A607B681B781A4668
:10098400474B53F822305A687B681B7919467B68B9
:100994005B7801FA03F319467B681B781846404BD1
:1009A40053F820300A435A607B681B781A463C4B44
:1009B40053F822309A687B685B785B00032101FA64
:1009C40003F3DB4319467B681B781846344B53F812
:1009D40020300A409A607B681B781A46304B53F8E3
:1009E40022309A687B68DB7819467B685B785B0009
:1009F40001FA03F319467B681B781846284B53F811
:100A040020300A439A607B689B78022B41D17B6833
:100A14005B78DB08BB737B685B7803F007037B734D
:100A24007B681B781A461E4B53F82230BA7B083277
:100A340053F822107B7B9B000F2202FA03F3DB4363
:100A440018467B681B781A46154B53F82230BA7B3C
:100A54000140083243F822107B681B781A46104B79
:100A640053F82230BA7B083253F822107B689B7902
:100A74001A467B7B9B0002FA03F318467B681B78BB
:100A84001A46074B53F82230BA7B0143083243F825
:100A94002210FB7B18461437BD4680BC704700BF4C
:100AA4000000002080B485B000AF03460A46FB7105
:100AB4001346BB710023FB73FB79052B8CBF012309
:100AC4000023DAB2BB790F2B8CBF01230023DBB2E6
:100AD4001343DBB2002B02D00123FB730FE0FB793D
:100AE4000A4A52F823305A69BB79012101FA03F307
:100AF4001846FB79054951F8233042405A61FB7B83
:100B040018461437BD4680BC704700BF0000002063
:100B140080B485B000AF78600023FB737B68002B42
:100B240002D10123FB734AE07B681B68012B1DD1B2
:100B34007B685B68012B12D1244B9B68234A43F0EA
:100B440001039360214B9B68204A23F002039360C6
:100B54001E4B1B681D4A43F4803313602FE01B4B6C
:100B64001B681A4A23F48033136028E07B681B68EF
:100B7400022B1DD17B689B68012B12D1134B9B6800
:100B8400124A23F001039360104B9B680F4A23F031
:100B9400020393600D4B1B680C4A43F0010313607E
:100BA4000DE00A4B1B68094A23F00103136006E0B9
:100BB4007B681B68042B02D07B681B68082BFB7BBB
:100BC40018461437BD4680BC704700BF0038024049
:100BD40080B485B000AF78600023FB737B68002B82
:100BE40002D10123FB731AE0104B9B6823F004022B
:100BF4007B681B680D4913438B600C4B9B6823F087
:100C04000A027B685B68094913438B60074B9B6846
:100C140023F00D027B689B68044913438B60FB7BC4
:100C240018461437BD4680BC704700BF00380240E8
:100C340080B584B000AF78600023FB737B68002B21
:100C440002D10123FB73D9E0786800F09DF97B6839
:100C54001B781A466C4B53F82230DA687B681B7891
:100C64001946694B53F8213042F40052DA607B682C
:100C74001B781A46644B53F82230DA687B685B7A37
:100C84001B0319467B681B7818465F4B53F82030CA
:100C94000A43DA607B689B7A022B10D17B681B784D
:100CA4001A46594B53F82230DA687B681B78194688
:100CB400554B53F8213022F48062DA6022E07B68DD
:100CC4001B781A46504B53F82230DA687B681B783D
:100CD40019464D4B53F8213042F48062DA607B6848
:100CE4001B781A46484B53F82230DA687B689B7AA3
:100CF4005B0219467B681B781846434B53F8203037
:100D04000A43DA607B689B78022B28D0022B47DCED
:100D1400002B02D0012B11D042E07B681B781A46CD
:100D2400394B53F82230DA687B681B781946364B06
:100D340053F8213042F00402DA6032E07B681B7819
:100D44001A46314B53F82230DA687B681B7819460F
:100D54002D4B53F8213042F00802DA6021E07B6821
:100D64001B781A46284B53F82230DA687B681B78C4
:100D74001946254B53F8213042F00402DA607B68AF
:100D84001B781A46204B53F82230DA687B681B78AC
:100D940019461D4B53F8213042F00802DA6000E096
:100DA40000BF7B681B781A46174B53F822301A6928
:100DB4007B681B7A1B0319467B681B781846124B09
:100DC40053F820300A431A617B681B781A460E4B8D
:100DD40053F82230DA687B68DB7ADB0319467B68D8
:100DE4001B781846084B53F820300A43DA607B68B6
:100DF4001A78064B1A70786800F036F9FB7B1846AF
:100E04001037BD4680BD00BF18000020C900002077
:100E140080B485B000AF78600B46FB700023FB7391
:100E24007B68002B02D10123FB731FE000BF7B68AA
:100E34001B781A46104B53F822301B6803F08003CA
:100E4400002BF4D07B681B781A460B4B53F82230E6
:100E5400FA785A6000BF7B681B781A46064B53F831
:100E640022301B6803F04003002BF4D0FB7B1846B0
:100E74001437BD4680BC70471800002080B485B08C
:100E840000AF786039600023FB737B68002B02D1CC
:100E94000123FB7315E000BF7B681B781A460C4BDB
:100EA40053F822301B6803F02003002BF4D07B6836
:100EB4001B781A46064B53F822305B68DAB23B685B
:100EC4001A70FB7B18461437BD4680BC704700BFC0
:100ED4001800002080B584B000AF7860396000232A
:100EE400FB737B68002B02D03B68002B0CD10123E1
:100EF400FB730DE03B685A1C3A601B78194678680E
:100F0400FFF786FF0346FB733B681B78002BF1D188
:100F1400FB7B18461037BD4680BD80B584B000AF5A
:100F2400786039600023FB730023BB737B68002B5C
:100F340002D03B68002B02D10123FB731EE0BB7B74
:100F44003A68134419467868FFF798FF09E0BB7BB9
:100F54000133BB73BB7B3A68134419467868FFF7C7
:100F64008DFFBB7B3A6813441B780D2BEFD1BB7B01
:100F74003A68134400221A700023FB73FB7B184663
:100F84001037BD4680BD000080B487B000AF7860E4
:100F94007B685B68FB607B68DB7A002B16D1FB689F
:100FA4001B012D4AB2FBF3F37B617A692B4BA3FB44
:100FB40002135B09642101FB03F3D31A1B013233CF
:100FC400264AA2FB03235B093B6118E0FB68DB00B4
:100FD400234AB2FBF3F3642202FB03F37B617A69D5
:100FE4001E4BA3FB02135B09642101FB03F3D31A19
:100FF400DB003233194AA2FB03235B093B617B69A3
:10100400164AA2FB03235B09BB607B681B781A4664
:10101400144B53F822309968BB681A017B681B781B
:101024001846104B53F820300A439A607B681B78AB
:101034001A460C4B53F8223099687B681B781A4681
:10104400084B53F822303A690A439A6000BF1C37B0
:10105400BD4680BC704700BF00105E5F1F85EB512A
:101064000024F4001800002080B582B000AF78603E
:101074007B685B7B022B17D0022B17DC002B17D06D
:10108400012B00D012E07B681B781A46274B53F8DB
:101094002230DA687B681B781946244B53F82130D8
:1010A40042F08002DA6004E000BF02E000BF00E02A
:1010B40000BF7B689B7B022B17D0022B17DC002B15
:1010C40017D0012B00D012E07B681B781A46174B0F
:1010D40053F82230DA687B681B781946134B53F8AF
:1010E400213042F02002DA6004E000BF02E000BFD9
:1010F40000E000BF7B681B78002B03D12520FFF79D
:1011040067F80EE07B681B78012B03D12620FFF7DC
:101114005FF806E07B681B78022B02D14720FFF7BB
:1011240057F800BF0837BD4680BD00BF1800002037
:1011340080B400AF2C4B1B781A462C4B53F822304A
:101144001B6803F02003002B1CD0274B1B781A4686
:10115400264B53F822301A68234B1B781946234B2D
:1011640053F8213022F020021A601F4B1B781A46D4
:101174001E4B53F822305B68DAB21D4B1A701D4BBC
:1011840001221A70184B1B781A46184B53F8223058
:101194001B6803F08003002B21D0134B1B781A46E5
:1011A400124B53F822301A680F4B1B7819460F4B19
:1011B40053F8213022F080021A600F4B1B78DBB207
:1011C400002B0CD10D4B1B78DAB2074B1B78194658
:1011D400064B53F821305A60074B01221A7000BFA6
:1011E400BD4680BC704700BFC90000201800002025
:1011F400CB000020CC00002024000020CA000020E6
:1012040080B400AF2C4B1B781A462C4B53F8223079
:101214001B6803F02003002B1CD0274B1B781A46B5
:10122400264B53F822301A68234B1B781946234B5C
:1012340053F8213022F020021A601F4B1B781A4603
:101244001E4B53F822305B68DAB21D4B1A701D4BEB
:1012540001221A70184B1B781A46184B53F8223087
:101264001B6803F08003002B21D0134B1B781A4614
:10127400124B53F822301A680F4B1B7819460F4B48
:1012840053F8213022F080021A600F4B1B78DBB236
:10129400002B0CD10D4B1B78DAB2074B1B78194687
:1012A400064B53F821305A60074B01221A7000BFD5
:1012B400BD4680BC704700BFC90000201800002054
:1012C400CB000020CC00002024000020CA00002015
:1012D40080B400AF2C4B1B781A462C4B53F82230A9
:1012E4001B6803F02003002B1CD0274B1B781A46E5
:1012F400264B53F822301A68234B1B781946234B8C
:1013040053F8213022F020021A601F4B1B781A4632
:101314001E4B53F822305B68DAB21D4B1A701D4B1A
:1013240001221A70184B1B781A46184B53F82230B6
:101334001B6803F08003002B21D0134B1B781A4643
:10134400124B53F822301A680F4B1B7819460F4B77
:1013540053F8213022F080021A600F4B1B78DBB265
:10136400002B0CD10D4B1B78DAB2074B1B781946B6
:10137400064B53F821305A60074B01221A7000BF04
:10138400BD4680BC704700BFC90000201800002083
:10139400CB000020CC00002024000020CA00002044
:1013A400B0B58CB000AF00F05DF8FEF771FF264BCE
:1013B4001B6B254A43F004031363234B1B6B224A24
:1013C40043F0020313632148FEF734FF2048FFF77C
:1013D4004BFA1D4B1B6B1C4A43F0010313631A4B5E
:1013E4001B6C194A43F4003313641A48FFF73CFAA0
:1013F4001948FFF739FA1948FFF71AFC184B07F197
:1014040018041D460FCD0FC495E803002060043472
:10141400218002340B0C237007F1180319460F487E
:10142400FFF758FD3B1D19460C48FFF776FD3B1DA1
:1014340019460A48FFF74EFD0D210220FFF732FB43
:101444006420FEF777FFF7E7003802400005FA054D
:101454002800002040000020480000203000002028
:101464008015000880B58AB000AF002387F82730C4
:1014740007F1100300221A605A609A60DA601A6158
:101484003B1D00221A605A609A6001233B610123CC
:101494007B6107F110031846FFF73AFB034687F810
:1014A400273000237B600023BB600023FB603B1DCF
:1014B4001846FFF78DFB034687F8273097F8273047
:1014C40018462837BD4680BD0D488546AFF30080D9
:1014D4000C480D490D4A002302E0D458C45004338B
:1014E400C4188C42F9D30A4A0A4C002301E0136061
:1014F4000432A242FBD300F011F8FFF751FFFEE7DC
:10150400000001200000002050000020A015000869
:1015140050000020D0000020FEE7000070B50D4D03
:101524000D4C641BA4100026A64209D10B4D0C4C93
:1015340000F018F8641BA4100026A64205D170BD63
:1015440055F8043B98470136EEE755F8043B9847B5
:101554000136F2E798150008981500089815000858
:101564009C150008F8B500BFF8BC08BC9E4670473F
:0C157400F8B500BFF8BC08BC9E467047EC
:1015800068616D616461206D6F68616D656420657F
:081590006C73617965640000D1
:04159800B90100088D
:04159C0095010008AD
:1015A000000002400004024000080240000C02401B
:1015B00000100240001C02400010004000440040A7
:1015C0000014004001000000020D010100000000B5
:1015D0000100020080250000000002000000000061
:1015E00000020201000107000003020100010700E0
:04000005080014CD0E
:00000001FF
